{
  "_format": "hh-sol-artifact-1",
  "contractName": "SensorDataRecorder",
  "sourceName": "contracts/SensorData.sol",
  "abi": [
    {
      "anonymous": false,
      "inputs": [
        {
          "indexed": true,
          "internalType": "uint64",
          "name": "timestampUnixNano",
          "type": "uint64"
        },
        {
          "indexed": true,
          "internalType": "string",
          "name": "sensorId",
          "type": "string"
        },
        {
          "indexed": false,
          "internalType": "int32",
          "name": "temperatureCelsiusScaled",
          "type": "int32"
        },
        {
          "indexed": false,
          "internalType": "uint32",
          "name": "humidityPercentScaled",
          "type": "uint32"
        },
        {
          "indexed": false,
          "internalType": "address",
          "name": "recorder",
          "type": "address"
        }
      ],
      "name": "DataRecorded",
      "type": "event"
    },
    {
      "inputs": [
        {
          "internalType": "uint256",
          "name": "",
          "type": "uint256"
        }
      ],
      "name": "allSensorReadings",
      "outputs": [
        {
          "internalType": "uint64",
          "name": "timestampUnixNano",
          "type": "uint64"
        },
        {
          "internalType": "string",
          "name": "sensorId",
          "type": "string"
        },
        {
          "internalType": "string",
          "name": "location",
          "type": "string"
        },
        {
          "internalType": "string",
          "name": "processStage",
          "type": "string"
        },
        {
          "internalType": "int32",
          "name": "temperatureCelsiusScaled",
          "type": "int32"
        },
        {
          "internalType": "uint32",
          "name": "humidityPercentScaled",
          "type": "uint32"
        },
        {
          "internalType": "address",
          "name": "recorder",
          "type": "address"
        }
      ],
      "stateMutability": "view",
      "type": "function"
    },
    {
      "inputs": [],
      "name": "getAllSensorData",
      "outputs": [
        {
          "components": [
            {
              "internalType": "uint64",
              "name": "timestampUnixNano",
              "type": "uint64"
            },
            {
              "internalType": "string",
              "name": "sensorId",
              "type": "string"
            },
            {
              "internalType": "string",
              "name": "location",
              "type": "string"
            },
            {
              "internalType": "string",
              "name": "processStage",
              "type": "string"
            },
            {
              "internalType": "int32",
              "name": "temperatureCelsiusScaled",
              "type": "int32"
            },
            {
              "internalType": "uint32",
              "name": "humidityPercentScaled",
              "type": "uint32"
            },
            {
              "internalType": "address",
              "name": "recorder",
              "type": "address"
            }
          ],
          "internalType": "struct SensorDataRecorder.SensorReading[]",
          "name": "",
          "type": "tuple[]"
        }
      ],
      "stateMutability": "view",
      "type": "function"
    },
    {
      "inputs": [],
      "name": "getSensorDataCount",
      "outputs": [
        {
          "internalType": "uint256",
          "name": "",
          "type": "uint256"
        }
      ],
      "stateMutability": "view",
      "type": "function"
    },
    {
      "inputs": [
        {
          "internalType": "uint64",
          "name": "_timestampUnixNano",
          "type": "uint64"
        },
        {
          "internalType": "string",
          "name": "_sensorId",
          "type": "string"
        },
        {
          "internalType": "string",
          "name": "_location",
          "type": "string"
        },
        {
          "internalType": "string",
          "name": "_processStage",
          "type": "string"
        },
        {
          "internalType": "int32",
          "name": "_temperatureCelsiusScaled",
          "type": "int32"
        },
        {
          "internalType": "uint32",
          "name": "_humidityPercentScaled",
          "type": "uint32"
        }
      ],
      "name": "recordSensorData",
      "outputs": [],
      "stateMutability": "nonpayable",
      "type": "function"
    }
  ],
  "bytecode": "0x608060405234801561001057600080fd5b5061149b806100206000396000f3fe608060405234801561001057600080fd5b506004361061004c5760003560e01c80631eb21a09146100515780637c5ddd971461006f5780639a4b3427146100a5578063d4ff1c67146100c3575b600080fd5b6100596100df565b60405161006691906108f0565b60405180910390f35b6100896004803603810190610084919061094b565b6100eb565b60405161009c9796959493929190610aa7565b60405180910390f35b6100ad610326565b6040516100ba9190610d1d565b60405180910390f35b6100dd60048036038101906100d89190610ef8565b610606565b005b60008080549050905090565b600081815481106100fb57600080fd5b90600052602060002090600502016000915090508060000160009054906101000a900467ffffffffffffffff169080600101805461013890611008565b80601f016020809104026020016040519081016040528092919081815260200182805461016490611008565b80156101b15780601f10610186576101008083540402835291602001916101b1565b820191906000526020600020905b81548152906001019060200180831161019457829003601f168201915b5050505050908060020180546101c690611008565b80601f01602080910402602001604051908101604052809291908181526020018280546101f290611008565b801561023f5780601f106102145761010080835404028352916020019161023f565b820191906000526020600020905b81548152906001019060200180831161022257829003601f168201915b50505050509080600301805461025490611008565b80601f016020809104026020016040519081016040528092919081815260200182805461028090611008565b80156102cd5780601f106102a2576101008083540402835291602001916102cd565b820191906000526020600020905b8154815290600101906020018083116102b057829003601f168201915b5050505050908060040160009054906101000a900460030b908060040160049054906101000a900463ffffffff16908060040160089054906101000a900473ffffffffffffffffffffffffffffffffffffffff16905087565b60606000805480602002602001604051908101604052809291908181526020016000905b828210156105fd57838290600052602060002090600502016040518060e00160405290816000820160009054906101000a900467ffffffffffffffff1667ffffffffffffffff1667ffffffffffffffff1681526020016001820180546103af90611008565b80601f01602080910402602001604051908101604052809291908181526020018280546103db90611008565b80156104285780601f106103fd57610100808354040283529160200191610428565b820191906000526020600020905b81548152906001019060200180831161040b57829003601f168201915b5050505050815260200160028201805461044190611008565b80601f016020809104026020016040519081016040528092919081815260200182805461046d90611008565b80156104ba5780601f1061048f576101008083540402835291602001916104ba565b820191906000526020600020905b81548152906001019060200180831161049d57829003601f168201915b505050505081526020016003820180546104d390611008565b80601f01602080910402602001604051908101604052809291908181526020018280546104ff90611008565b801561054c5780601f106105215761010080835404028352916020019161054c565b820191906000526020600020905b81548152906001019060200180831161052f57829003601f168201915b505050505081526020016004820160009054906101000a900460030b60030b60030b81526020016004820160049054906101000a900463ffffffff1663ffffffff1663ffffffff1681526020016004820160089054906101000a900473ffffffffffffffffffffffffffffffffffffffff1673ffffffffffffffffffffffffffffffffffffffff1673ffffffffffffffffffffffffffffffffffffffff16815250508152602001906001019061034a565b50505050905090565b7ffffffffffffffffffffffffffffffffffffffffffffffffffffffffffffff0608260030b1215801561063e57506130d48260030b13155b61067d576040517f08c379a0000000000000000000000000000000000000000000000000000000008152600401610674906110ab565b60405180910390fd5b60008163ffffffff161015801561069c57506127108163ffffffff1611155b6106db576040517f08c379a00000000000000000000000000000000000000000000000000000000081526004016106d29061113d565b60405180910390fd5b60006040518060e001604052808867ffffffffffffffff1681526020018781526020018681526020018581526020018460030b81526020018363ffffffff1681526020013373ffffffffffffffffffffffffffffffffffffffff168152509050600081908060018154018082558091505060019003906000526020600020906005020160009091909190915060008201518160000160006101000a81548167ffffffffffffffff021916908367ffffffffffffffff16021790555060208201518160010190816107ab9190611309565b5060408201518160020190816107c19190611309565b5060608201518160030190816107d79190611309565b5060808201518160040160006101000a81548163ffffffff021916908360030b63ffffffff16021790555060a08201518160040160046101000a81548163ffffffff021916908363ffffffff16021790555060c08201518160040160086101000a81548173ffffffffffffffffffffffffffffffffffffffff021916908373ffffffffffffffffffffffffffffffffffffffff1602179055505050856040516108809190611417565b60405180910390208767ffffffffffffffff167f25428b2b22cfdab895ba0100660f26b711270bece9a56930a5886c20071fbd9b8585336040516108c69392919061142e565b60405180910390a350505050505050565b6000819050919050565b6108ea816108d7565b82525050565b600060208201905061090560008301846108e1565b92915050565b6000604051905090565b600080fd5b600080fd5b610928816108d7565b811461093357600080fd5b50565b6000813590506109458161091f565b92915050565b60006020828403121561096157610960610915565b5b600061096f84828501610936565b91505092915050565b600067ffffffffffffffff82169050919050565b61099581610978565b82525050565b600081519050919050565b600082825260208201905092915050565b60005b838110156109d55780820151818401526020810190506109ba565b60008484015250505050565b6000601f19601f8301169050919050565b60006109fd8261099b565b610a0781856109a6565b9350610a178185602086016109b7565b610a20816109e1565b840191505092915050565b60008160030b9050919050565b610a4181610a2b565b82525050565b600063ffffffff82169050919050565b610a6081610a47565b82525050565b600073ffffffffffffffffffffffffffffffffffffffff82169050919050565b6000610a9182610a66565b9050919050565b610aa181610a86565b82525050565b600060e082019050610abc600083018a61098c565b8181036020830152610ace81896109f2565b90508181036040830152610ae281886109f2565b90508181036060830152610af681876109f2565b9050610b056080830186610a38565b610b1260a0830185610a57565b610b1f60c0830184610a98565b98975050505050505050565b600081519050919050565b600082825260208201905092915050565b6000819050602082019050919050565b610b6081610978565b82525050565b600082825260208201905092915050565b6000610b828261099b565b610b8c8185610b66565b9350610b9c8185602086016109b7565b610ba5816109e1565b840191505092915050565b610bb981610a2b565b82525050565b610bc881610a47565b82525050565b610bd781610a86565b82525050565b600060e083016000830151610bf56000860182610b57565b5060208301518482036020860152610c0d8282610b77565b91505060408301518482036040860152610c278282610b77565b91505060608301518482036060860152610c418282610b77565b9150506080830151610c566080860182610bb0565b5060a0830151610c6960a0860182610bbf565b5060c0830151610c7c60c0860182610bce565b508091505092915050565b6000610c938383610bdd565b905092915050565b6000602082019050919050565b6000610cb382610b2b565b610cbd8185610b36565b935083602082028501610ccf85610b47565b8060005b85811015610d0b5784840389528151610cec8582610c87565b9450610cf783610c9b565b925060208a01995050600181019050610cd3565b50829750879550505050505092915050565b60006020820190508181036000830152610d378184610ca8565b905092915050565b610d4881610978565b8114610d5357600080fd5b50565b600081359050610d6581610d3f565b92915050565b600080fd5b600080fd5b7f4e487b7100000000000000000000000000000000000000000000000000000000600052604160045260246000fd5b610dad826109e1565b810181811067ffffffffffffffff82111715610dcc57610dcb610d75565b5b80604052505050565b6000610ddf61090b565b9050610deb8282610da4565b919050565b600067ffffffffffffffff821115610e0b57610e0a610d75565b5b610e14826109e1565b9050602081019050919050565b82818337600083830152505050565b6000610e43610e3e84610df0565b610dd5565b905082815260208101848484011115610e5f57610e5e610d70565b5b610e6a848285610e21565b509392505050565b600082601f830112610e8757610e86610d6b565b5b8135610e97848260208601610e30565b91505092915050565b610ea981610a2b565b8114610eb457600080fd5b50565b600081359050610ec681610ea0565b92915050565b610ed581610a47565b8114610ee057600080fd5b50565b600081359050610ef281610ecc565b92915050565b60008060008060008060c08789031215610f1557610f14610915565b5b6000610f2389828a01610d56565b965050602087013567ffffffffffffffff811115610f4457610f4361091a565b5b610f5089828a01610e72565b955050604087013567ffffffffffffffff811115610f7157610f7061091a565b5b610f7d89828a01610e72565b945050606087013567ffffffffffffffff811115610f9e57610f9d61091a565b5b610faa89828a01610e72565b9350506080610fbb89828a01610eb7565b92505060a0610fcc89828a01610ee3565b9150509295509295509295565b7f4e487b7100000000000000000000000000000000000000000000000000000000600052602260045260246000fd5b6000600282049050600182168061102057607f821691505b60208210810361103357611032610fd9565b5b50919050565b7f496e76616c69642074656d70657261747572652072616e676520282d3430207460008201527f6f203132352043207363616c6564290000000000000000000000000000000000602082015250565b6000611095602f836109a6565b91506110a082611039565b604082019050919050565b600060208201905081810360008301526110c481611088565b9050919050565b7f496e76616c69642068756d69646974792072616e676520283020746f2031303060008201527f2025207363616c65642900000000000000000000000000000000000000000000602082015250565b6000611127602a836109a6565b9150611132826110cb565b604082019050919050565b600060208201905081810360008301526111568161111a565b9050919050565b60008190508160005260206000209050919050565b60006020601f8301049050919050565b600082821b905092915050565b6000600883026111bf7fffffffffffffffffffffffffffffffffffffffffffffffffffffffffffffffff82611182565b6111c98683611182565b95508019841693508086168417925050509392505050565b6000819050919050565b60006112066112016111fc846108d7565b6111e1565b6108d7565b9050919050565b6000819050919050565b611220836111eb565b61123461122c8261120d565b84845461118f565b825550505050565b600090565b61124961123c565b611254818484611217565b505050565b5b818110156112785761126d600082611241565b60018101905061125a565b5050565b601f8211156112bd5761128e8161115d565b61129784611172565b810160208510156112a6578190505b6112ba6112b285611172565b830182611259565b50505b505050565b600082821c905092915050565b60006112e0600019846008026112c2565b1980831691505092915050565b60006112f983836112cf565b9150826002028217905092915050565b6113128261099b565b67ffffffffffffffff81111561132b5761132a610d75565b5b6113358254611008565b61134082828561127c565b600060209050601f8311600181146113735760008415611361578287015190505b61136b85826112ed565b8655506113d3565b601f1984166113818661115d565b60005b828110156113a957848901518255600182019150602085019450602081019050611384565b868310156113c657848901516113c2601f8916826112cf565b8355505b6001600288020188555050505b505050505050565b600081905092915050565b60006113f18261099b565b6113fb81856113db565b935061140b8185602086016109b7565b80840191505092915050565b600061142382846113e6565b915081905092915050565b60006060820190506114436000830186610a38565b6114506020830185610a57565b61145d6040830184610a98565b94935050505056fea2646970667358221220c01a70ac56866056b3e2ab653fbbdbeb672c58502bd3d5cb8249f8ac25a6e89d64736f6c63430008140033",
  "linkReferences": {},
  "deployedLinkReferences": {}
}